{
  "_format": "hh-sol-artifact-1",
  "contractName": "StarterPack",
  "sourceName": "contracts/StarterPack.sol",
  "abi": [
    {
      "inputs": [],
      "stateMutability": "nonpayable",
      "type": "constructor"
    },
    {
      "inputs": [
        {
          "internalType": "address",
          "name": "sender",
          "type": "address"
        },
        {
          "internalType": "uint256",
          "name": "tokenId",
          "type": "uint256"
        },
        {
          "internalType": "address",
          "name": "owner",
          "type": "address"
        }
      ],
      "name": "ERC721IncorrectOwner",
      "type": "error"
    },
    {
      "inputs": [
        {
          "internalType": "address",
          "name": "operator",
          "type": "address"
        },
        {
          "internalType": "uint256",
          "name": "tokenId",
          "type": "uint256"
        }
      ],
      "name": "ERC721InsufficientApproval",
      "type": "error"
    },
    {
      "inputs": [
        {
          "internalType": "address",
          "name": "approver",
          "type": "address"
        }
      ],
      "name": "ERC721InvalidApprover",
      "type": "error"
    },
    {
      "inputs": [
        {
          "internalType": "address",
          "name": "operator",
          "type": "address"
        }
      ],
      "name": "ERC721InvalidOperator",
      "type": "error"
    },
    {
      "inputs": [
        {
          "internalType": "address",
          "name": "owner",
          "type": "address"
        }
      ],
      "name": "ERC721InvalidOwner",
      "type": "error"
    },
    {
      "inputs": [
        {
          "internalType": "address",
          "name": "receiver",
          "type": "address"
        }
      ],
      "name": "ERC721InvalidReceiver",
      "type": "error"
    },
    {
      "inputs": [
        {
          "internalType": "address",
          "name": "sender",
          "type": "address"
        }
      ],
      "name": "ERC721InvalidSender",
      "type": "error"
    },
    {
      "inputs": [
        {
          "internalType": "uint256",
          "name": "tokenId",
          "type": "uint256"
        }
      ],
      "name": "ERC721NonexistentToken",
      "type": "error"
    },
    {
      "inputs": [
        {
          "internalType": "address",
          "name": "owner",
          "type": "address"
        }
      ],
      "name": "OwnableInvalidOwner",
      "type": "error"
    },
    {
      "inputs": [
        {
          "internalType": "address",
          "name": "account",
          "type": "address"
        }
      ],
      "name": "OwnableUnauthorizedAccount",
      "type": "error"
    },
    {
      "anonymous": false,
      "inputs": [
        {
          "indexed": true,
          "internalType": "address",
          "name": "owner",
          "type": "address"
        },
        {
          "indexed": true,
          "internalType": "address",
          "name": "approved",
          "type": "address"
        },
        {
          "indexed": true,
          "internalType": "uint256",
          "name": "tokenId",
          "type": "uint256"
        }
      ],
      "name": "Approval",
      "type": "event"
    },
    {
      "anonymous": false,
      "inputs": [
        {
          "indexed": true,
          "internalType": "address",
          "name": "owner",
          "type": "address"
        },
        {
          "indexed": true,
          "internalType": "address",
          "name": "operator",
          "type": "address"
        },
        {
          "indexed": false,
          "internalType": "bool",
          "name": "approved",
          "type": "bool"
        }
      ],
      "name": "ApprovalForAll",
      "type": "event"
    },
    {
      "anonymous": false,
      "inputs": [
        {
          "indexed": true,
          "internalType": "address",
          "name": "previousOwner",
          "type": "address"
        },
        {
          "indexed": true,
          "internalType": "address",
          "name": "newOwner",
          "type": "address"
        }
      ],
      "name": "OwnershipTransferred",
      "type": "event"
    },
    {
      "anonymous": false,
      "inputs": [
        {
          "indexed": true,
          "internalType": "address",
          "name": "from",
          "type": "address"
        },
        {
          "indexed": true,
          "internalType": "address",
          "name": "to",
          "type": "address"
        },
        {
          "indexed": true,
          "internalType": "uint256",
          "name": "tokenId",
          "type": "uint256"
        }
      ],
      "name": "Transfer",
      "type": "event"
    },
    {
      "inputs": [],
      "name": "MAX_SUPPLY",
      "outputs": [
        {
          "internalType": "uint256",
          "name": "",
          "type": "uint256"
        }
      ],
      "stateMutability": "view",
      "type": "function"
    },
    {
      "inputs": [
        {
          "internalType": "address",
          "name": "to",
          "type": "address"
        },
        {
          "internalType": "uint256",
          "name": "tokenId",
          "type": "uint256"
        }
      ],
      "name": "approve",
      "outputs": [],
      "stateMutability": "nonpayable",
      "type": "function"
    },
    {
      "inputs": [
        {
          "internalType": "address",
          "name": "owner",
          "type": "address"
        }
      ],
      "name": "balanceOf",
      "outputs": [
        {
          "internalType": "uint256",
          "name": "",
          "type": "uint256"
        }
      ],
      "stateMutability": "view",
      "type": "function"
    },
    {
      "inputs": [
        {
          "internalType": "uint256",
          "name": "tokenId",
          "type": "uint256"
        }
      ],
      "name": "getApproved",
      "outputs": [
        {
          "internalType": "address",
          "name": "",
          "type": "address"
        }
      ],
      "stateMutability": "view",
      "type": "function"
    },
    {
      "inputs": [
        {
          "internalType": "address",
          "name": "user",
          "type": "address"
        }
      ],
      "name": "hasClaimedStarterPack",
      "outputs": [
        {
          "internalType": "bool",
          "name": "",
          "type": "bool"
        }
      ],
      "stateMutability": "view",
      "type": "function"
    },
    {
      "inputs": [
        {
          "internalType": "address",
          "name": "",
          "type": "address"
        }
      ],
      "name": "hasMinted",
      "outputs": [
        {
          "internalType": "bool",
          "name": "",
          "type": "bool"
        }
      ],
      "stateMutability": "view",
      "type": "function"
    },
    {
      "inputs": [
        {
          "internalType": "address",
          "name": "owner",
          "type": "address"
        },
        {
          "internalType": "address",
          "name": "operator",
          "type": "address"
        }
      ],
      "name": "isApprovedForAll",
      "outputs": [
        {
          "internalType": "bool",
          "name": "",
          "type": "bool"
        }
      ],
      "stateMutability": "view",
      "type": "function"
    },
    {
      "inputs": [
        {
          "internalType": "address",
          "name": "to",
          "type": "address"
        }
      ],
      "name": "mint",
      "outputs": [],
      "stateMutability": "nonpayable",
      "type": "function"
    },
    {
      "inputs": [],
      "name": "name",
      "outputs": [
        {
          "internalType": "string",
          "name": "",
          "type": "string"
        }
      ],
      "stateMutability": "view",
      "type": "function"
    },
    {
      "inputs": [],
      "name": "owner",
      "outputs": [
        {
          "internalType": "address",
          "name": "",
          "type": "address"
        }
      ],
      "stateMutability": "view",
      "type": "function"
    },
    {
      "inputs": [
        {
          "internalType": "uint256",
          "name": "tokenId",
          "type": "uint256"
        }
      ],
      "name": "ownerOf",
      "outputs": [
        {
          "internalType": "address",
          "name": "",
          "type": "address"
        }
      ],
      "stateMutability": "view",
      "type": "function"
    },
    {
      "inputs": [],
      "name": "renounceOwnership",
      "outputs": [],
      "stateMutability": "nonpayable",
      "type": "function"
    },
    {
      "inputs": [
        {
          "internalType": "address",
          "name": "from",
          "type": "address"
        },
        {
          "internalType": "address",
          "name": "to",
          "type": "address"
        },
        {
          "internalType": "uint256",
          "name": "tokenId",
          "type": "uint256"
        }
      ],
      "name": "safeTransferFrom",
      "outputs": [],
      "stateMutability": "nonpayable",
      "type": "function"
    },
    {
      "inputs": [
        {
          "internalType": "address",
          "name": "from",
          "type": "address"
        },
        {
          "internalType": "address",
          "name": "to",
          "type": "address"
        },
        {
          "internalType": "uint256",
          "name": "tokenId",
          "type": "uint256"
        },
        {
          "internalType": "bytes",
          "name": "data",
          "type": "bytes"
        }
      ],
      "name": "safeTransferFrom",
      "outputs": [],
      "stateMutability": "nonpayable",
      "type": "function"
    },
    {
      "inputs": [
        {
          "internalType": "address",
          "name": "operator",
          "type": "address"
        },
        {
          "internalType": "bool",
          "name": "approved",
          "type": "bool"
        }
      ],
      "name": "setApprovalForAll",
      "outputs": [],
      "stateMutability": "nonpayable",
      "type": "function"
    },
    {
      "inputs": [
        {
          "internalType": "bytes4",
          "name": "interfaceId",
          "type": "bytes4"
        }
      ],
      "name": "supportsInterface",
      "outputs": [
        {
          "internalType": "bool",
          "name": "",
          "type": "bool"
        }
      ],
      "stateMutability": "view",
      "type": "function"
    },
    {
      "inputs": [],
      "name": "symbol",
      "outputs": [
        {
          "internalType": "string",
          "name": "",
          "type": "string"
        }
      ],
      "stateMutability": "view",
      "type": "function"
    },
    {
      "inputs": [
        {
          "internalType": "uint256",
          "name": "",
          "type": "uint256"
        }
      ],
      "name": "tokenURI",
      "outputs": [
        {
          "internalType": "string",
          "name": "",
          "type": "string"
        }
      ],
      "stateMutability": "pure",
      "type": "function"
    },
    {
      "inputs": [],
      "name": "totalSupply",
      "outputs": [
        {
          "internalType": "uint256",
          "name": "",
          "type": "uint256"
        }
      ],
      "stateMutability": "view",
      "type": "function"
    },
    {
      "inputs": [
        {
          "internalType": "address",
          "name": "from",
          "type": "address"
        },
        {
          "internalType": "address",
          "name": "to",
          "type": "address"
        },
        {
          "internalType": "uint256",
          "name": "tokenId",
          "type": "uint256"
        }
      ],
      "name": "transferFrom",
      "outputs": [],
      "stateMutability": "nonpayable",
      "type": "function"
    },
    {
      "inputs": [
        {
          "internalType": "address",
          "name": "newOwner",
          "type": "address"
        }
      ],
      "name": "transferOwnership",
      "outputs": [],
      "stateMutability": "nonpayable",
      "type": "function"
    }
  ],
  "bytecode": "0x60806040523480156200001157600080fd5b50336040518060400160405280601e81526020017f5765616c7468206f66204e6174696f6e732053746172746572205061636b0000815250604051806040016040528060048152602001630574e53560e41b8152508160009081620000779190620001c1565b506001620000868282620001c1565b5050506001600160a01b038116620000b857604051631e4fbdf760e01b81526000600482015260240160405180910390fd5b620000c381620000ca565b506200028d565b600680546001600160a01b038381166001600160a01b0319831681179093556040519116919082907f8be0079c531659141344cd1fd0a4f28419497f9722a3daafe3b4186f6b6457e090600090a35050565b634e487b7160e01b600052604160045260246000fd5b600181811c908216806200014757607f821691505b6020821081036200016857634e487b7160e01b600052602260045260246000fd5b50919050565b601f821115620001bc57600081815260208120601f850160051c81016020861015620001975750805b601f850160051c820191505b81811015620001b857828155600101620001a3565b5050505b505050565b81516001600160401b03811115620001dd57620001dd6200011c565b620001f581620001ee845462000132565b846200016e565b602080601f8311600181146200022d5760008415620002145750858301515b600019600386901b1c1916600185901b178555620001b8565b600085815260208120601f198616915b828110156200025e578886015182559484019460019091019084016200023d565b50858210156200027d5787850151600019600388901b60f8161c191681555b5050505050600190811b01905550565b6110d3806200029d6000396000f3fe608060405234801561001057600080fd5b50600436106101375760003560e01c80636a627842116100b8578063a22cb4651161007c578063a22cb46514610277578063b88d4fde1461028a578063c87b56dd1461029d578063e86badf4146102b0578063e985e9c5146102dc578063f2fde38b146102ef57600080fd5b80636a6278421461023057806370a0823114610243578063715018a6146102565780638da5cb5b1461025e57806395d89b411461026f57600080fd5b806323b872dd116100ff57806323b872dd146101cb57806332cb6b0c146101de57806338e21cce146101e757806342842e0e1461020a5780636352211e1461021d57600080fd5b806301ffc9a71461013c57806306fdde0314610164578063081812fc14610179578063095ea7b3146101a457806318160ddd146101b9575b600080fd5b61014f61014a366004610d0c565b610302565b60405190151581526020015b60405180910390f35b61016c610348565b60405161015b9190610d76565b61018c610187366004610d89565b6103da565b6040516001600160a01b03909116815260200161015b565b6101b76101b2366004610dbe565b610403565b005b6007545b60405190815260200161015b565b6101b76101d9366004610de8565b610412565b6101bd61271081565b61014f6101f5366004610e24565b60086020526000908152604090205460ff1681565b6101b7610218366004610de8565b6104a2565b61018c61022b366004610d89565b6104c2565b6101b761023e366004610e24565b6104cd565b6101bd610251366004610e24565b6105d4565b6101b761061c565b6006546001600160a01b031661018c565b61016c610630565b6101b7610285366004610e3f565b61063f565b6101b7610298366004610e91565b61064a565b61016c6102ab366004610d89565b610661565b61014f6102be366004610e24565b6001600160a01b031660009081526008602052604090205460ff1690565b61014f6102ea366004610f6d565b610682565b6101b76102fd366004610e24565b6106b0565b60006380ac58cd60e01b6001600160e01b0319831614806103335750635b5e139f60e01b6001600160e01b03198316145b806103425750610342826106eb565b92915050565b60606000805461035790610fa0565b80601f016020809104026020016040519081016040528092919081815260200182805461038390610fa0565b80156103d05780601f106103a5576101008083540402835291602001916103d0565b820191906000526020600020905b8154815290600101906020018083116103b357829003601f168201915b5050505050905090565b60006103e58261073b565b506000828152600460205260409020546001600160a01b0316610342565b61040e828233610774565b5050565b6001600160a01b03821661044157604051633250574960e11b8152600060048201526024015b60405180910390fd5b600061044e838333610781565b9050836001600160a01b0316816001600160a01b03161461049c576040516364283d7b60e01b81526001600160a01b0380861660048301526024820184905282166044820152606401610438565b50505050565b6104bd8383836040518060200160405280600081525061064a565b505050565b60006103428261073b565b6001600160a01b03811660009081526008602052604090205460ff16156105495760405162461bcd60e51b815260206004820152602a60248201527f416464726573732068617320616c726561647920636c61696d656420612073746044820152696172746572207061636b60b01b6064820152608401610438565b612710600754106105915760405162461bcd60e51b815260206004820152601260248201527113585e081cdd5c1c1b1e481c995858da195960721b6044820152606401610438565b6001600160a01b0381166000908152600860205260408120805460ff19166001179055600780546105d1928492906105c883610fda565b9190505561087a565b50565b60006001600160a01b038216610600576040516322718ad960e21b815260006004820152602401610438565b506001600160a01b031660009081526003602052604090205490565b6106246108df565b61062e600061090c565b565b60606001805461035790610fa0565b61040e33838361095e565b610655848484610412565b61049c848484846109fd565b606060405180608001604052806042815260200161105c6042913992915050565b6001600160a01b03918216600090815260056020908152604080832093909416825291909152205460ff1690565b6106b86108df565b6001600160a01b0381166106e257604051631e4fbdf760e01b815260006004820152602401610438565b6105d18161090c565b60006001600160e01b031982166380ac58cd60e01b148061071c57506001600160e01b03198216635b5e139f60e01b145b8061034257506301ffc9a760e01b6001600160e01b0319831614610342565b6000818152600260205260408120546001600160a01b03168061034257604051637e27328960e01b815260048101849052602401610438565b6104bd8383836001610b26565b6000828152600260205260408120546001600160a01b03908116908316156107ae576107ae818486610c2c565b6001600160a01b038116156107ec576107cb600085600080610b26565b6001600160a01b038116600090815260036020526040902080546000190190555b6001600160a01b0385161561081b576001600160a01b0385166000908152600360205260409020805460010190555b60008481526002602052604080822080546001600160a01b0319166001600160a01b0389811691821790925591518793918516917fddf252ad1be2c89b69c2b068fc378daa952ba7f163c4a11628f55a4df523b3ef91a4949350505050565b6001600160a01b0382166108a457604051633250574960e11b815260006004820152602401610438565b60006108b283836000610781565b90506001600160a01b038116156104bd576040516339e3563760e11b815260006004820152602401610438565b6006546001600160a01b0316331461062e5760405163118cdaa760e01b8152336004820152602401610438565b600680546001600160a01b038381166001600160a01b0319831681179093556040519116919082907f8be0079c531659141344cd1fd0a4f28419497f9722a3daafe3b4186f6b6457e090600090a35050565b6001600160a01b03821661099057604051630b61174360e31b81526001600160a01b0383166004820152602401610438565b6001600160a01b03838116600081815260056020908152604080832094871680845294825291829020805460ff191686151590811790915591519182527f17307eab39ab6107e8899845ad3d59bd9653f200f220920489ca2b5937696c31910160405180910390a3505050565b6001600160a01b0383163b1561049c57604051630a85bd0160e11b81526001600160a01b0384169063150b7a0290610a3f903390889087908790600401611001565b6020604051808303816000875af1925050508015610a7a575060408051601f3d908101601f19168201909252610a779181019061103e565b60015b610ae3573d808015610aa8576040519150601f19603f3d011682016040523d82523d6000602084013e610aad565b606091505b508051600003610adb57604051633250574960e11b81526001600160a01b0385166004820152602401610438565b805181602001fd5b6001600160e01b03198116630a85bd0160e11b14610b1f57604051633250574960e11b81526001600160a01b0385166004820152602401610438565b5050505050565b8080610b3a57506001600160a01b03821615155b15610bfc576000610b4a8461073b565b90506001600160a01b03831615801590610b765750826001600160a01b0316816001600160a01b031614155b8015610b895750610b878184610682565b155b15610bb25760405163a9fbf51f60e01b81526001600160a01b0384166004820152602401610438565b8115610bfa5783856001600160a01b0316826001600160a01b03167f8c5be1e5ebec7d5bd14f71427d1e84f3dd0314c0f7b2291e5b200ac8c7c3b92560405160405180910390a45b505b5050600090815260046020526040902080546001600160a01b0319166001600160a01b0392909216919091179055565b610c37838383610c90565b6104bd576001600160a01b038316610c6557604051637e27328960e01b815260048101829052602401610438565b60405163177e802f60e01b81526001600160a01b038316600482015260248101829052604401610438565b60006001600160a01b03831615801590610cee5750826001600160a01b0316846001600160a01b03161480610cca5750610cca8484610682565b80610cee57506000828152600460205260409020546001600160a01b038481169116145b949350505050565b6001600160e01b0319811681146105d157600080fd5b600060208284031215610d1e57600080fd5b8135610d2981610cf6565b9392505050565b6000815180845260005b81811015610d5657602081850181015186830182015201610d3a565b506000602082860101526020601f19601f83011685010191505092915050565b602081526000610d296020830184610d30565b600060208284031215610d9b57600080fd5b5035919050565b80356001600160a01b0381168114610db957600080fd5b919050565b60008060408385031215610dd157600080fd5b610dda83610da2565b946020939093013593505050565b600080600060608486031215610dfd57600080fd5b610e0684610da2565b9250610e1460208501610da2565b9150604084013590509250925092565b600060208284031215610e3657600080fd5b610d2982610da2565b60008060408385031215610e5257600080fd5b610e5b83610da2565b915060208301358015158114610e7057600080fd5b809150509250929050565b634e487b7160e01b600052604160045260246000fd5b60008060008060808587031215610ea757600080fd5b610eb085610da2565b9350610ebe60208601610da2565b925060408501359150606085013567ffffffffffffffff80821115610ee257600080fd5b818701915087601f830112610ef657600080fd5b813581811115610f0857610f08610e7b565b604051601f8201601f19908116603f01168101908382118183101715610f3057610f30610e7b565b816040528281528a6020848701011115610f4957600080fd5b82602086016020830137600060208483010152809550505050505092959194509250565b60008060408385031215610f8057600080fd5b610f8983610da2565b9150610f9760208401610da2565b90509250929050565b600181811c90821680610fb457607f821691505b602082108103610fd457634e487b7160e01b600052602260045260246000fd5b50919050565b600060018201610ffa57634e487b7160e01b600052601160045260246000fd5b5060010190565b6001600160a01b038581168252841660208201526040810183905260806060820181905260009061103490830184610d30565b9695505050505050565b60006020828403121561105057600080fd5b8151610d2981610cf656fe697066733a2f2f6261666b72656967696b34326d376b676a7079757633676167636c75726536633437686d63757164666a6e6a6b7a33657170756877756e77366161a26469706673582212200937f894fbf920794e54320aaccb42a77a9facfec6a4893a47374ed8e3555a7664736f6c63430008140033",
  "linkReferences": {},
  "deployedLinkReferences": {}
}